{"abi":[{"type":"receive","stateMutability":"payable"},{"type":"function","name":"callDapp","inputs":[{"name":"target","type":"address","internalType":"address"},{"name":"data","type":"bytes","internalType":"bytes"}],"outputs":[{"name":"","type":"bytes","internalType":"bytes"}],"stateMutability":"nonpayable"},{"type":"function","name":"claimTokens","inputs":[{"name":"token","type":"address","internalType":"address"},{"name":"amount","type":"uint256","internalType":"uint256"}],"outputs":[],"stateMutability":"nonpayable"},{"type":"function","name":"core","inputs":[],"outputs":[{"name":"","type":"address","internalType":"address"}],"stateMutability":"view"},{"type":"function","name":"initialize","inputs":[{"name":"coreAddress","type":"address","internalType":"address"}],"outputs":[],"stateMutability":"nonpayable"},{"type":"function","name":"owner","inputs":[],"outputs":[{"name":"","type":"address","internalType":"address"}],"stateMutability":"view"},{"type":"function","name":"setOwner","inputs":[{"name":"newOwner","type":"address","internalType":"address"}],"outputs":[],"stateMutability":"nonpayable"},{"type":"event","name":"ClaimedTokens","inputs":[{"name":"token","type":"address","indexed":false,"internalType":"address"},{"name":"owner","type":"address","indexed":false,"internalType":"address"},{"name":"amount","type":"uint256","indexed":false,"internalType":"uint256"}],"anonymous":false},{"type":"event","name":"OnwerSet","inputs":[{"name":"onwer","type":"address","indexed":false,"internalType":"address"}],"anonymous":false}],"bytecode":{"object":"0x608060405234801561000f575f80fd5b506111988061001d5f395ff3fe608060405260043610610058575f3560e01c806313af4035146100635780634331fa6e1461008b5780638da5cb5b146100c7578063c4d66de8146100f1578063f2f4eb2614610119578063fe417fa5146101435761005f565b3661005f57005b5f80fd5b34801561006e575f80fd5b506100896004803603810190610084919061099e565b61016b565b005b348015610096575f80fd5b506100b160048036038101906100ac9190610b05565b6102e2565b6040516100be9190610bd9565b60405180910390f35b3480156100d2575f80fd5b506100db610428565b6040516100e89190610c08565b60405180910390f35b3480156100fc575f80fd5b506101176004803603810190610112919061099e565b610450565b005b348015610124575f80fd5b5061012d6105e1565b60405161013a9190610c08565b60405180910390f35b34801561014e575f80fd5b5061016960048036038101906101649190610c54565b610609565b005b3373ffffffffffffffffffffffffffffffffffffffff1660345f9054906101000a900473ffffffffffffffffffffffffffffffffffffffff1673ffffffffffffffffffffffffffffffffffffffff16146101fa576040517f08c379a00000000000000000000000000000000000000000000000000000000081526004016101f190610cec565b60405180910390fd5b5f73ffffffffffffffffffffffffffffffffffffffff168173ffffffffffffffffffffffffffffffffffffffff1603610268576040517f08c379a000000000000000000000000000000000000000000000000000000000815260040161025f90610d54565b60405180910390fd5b8060335f6101000a81548173ffffffffffffffffffffffffffffffffffffffff021916908373ffffffffffffffffffffffffffffffffffffffff1602179055507ff2bf82ec9fbd15628bde8fe50feaeeb0d2eab3d12d043094c4b61a1ffba4b964816040516102d79190610c08565b60405180910390a150565b60603373ffffffffffffffffffffffffffffffffffffffff1660345f9054906101000a900473ffffffffffffffffffffffffffffffffffffffff1673ffffffffffffffffffffffffffffffffffffffff1614610373576040517f08c379a000000000000000000000000000000000000000000000000000000000815260040161036a90610cec565b60405180910390fd5b5f808473ffffffffffffffffffffffffffffffffffffffff168460405161039a9190610dac565b5f604051808303815f865af19150503d805f81146103d3576040519150601f19603f3d011682016040523d82523d5f602084013e6103d8565b606091505b50915091508161041d576040517f08c379a000000000000000000000000000000000000000000000000000000000815260040161041490610e0c565b60405180910390fd5b809250505092915050565b5f60335f9054906101000a900473ffffffffffffffffffffffffffffffffffffffff16905090565b5f60019054906101000a900460ff168061046e575061046d610924565b5b8061048357505f8054906101000a900460ff16155b6104c2576040517f08c379a00000000000000000000000000000000000000000000000000000000081526004016104b990610e9a565b60405180910390fd5b5f8060019054906101000a900460ff16159050801561050f5760015f60016101000a81548160ff02191690831515021790555060015f806101000a81548160ff0219169083151502179055505b5f73ffffffffffffffffffffffffffffffffffffffff168273ffffffffffffffffffffffffffffffffffffffff160361057d576040517f08c379a000000000000000000000000000000000000000000000000000000000815260040161057490610f02565b60405180910390fd5b8160345f6101000a81548173ffffffffffffffffffffffffffffffffffffffff021916908373ffffffffffffffffffffffffffffffffffffffff16021790555080156105dd575f8060016101000a81548160ff0219169083151502179055505b5050565b5f60345f9054906101000a900473ffffffffffffffffffffffffffffffffffffffff16905090565b3373ffffffffffffffffffffffffffffffffffffffff1660335f9054906101000a900473ffffffffffffffffffffffffffffffffffffffff1673ffffffffffffffffffffffffffffffffffffffff1614610698576040517f08c379a000000000000000000000000000000000000000000000000000000000815260040161068f90610f6a565b60405180910390fd5b5f73ffffffffffffffffffffffffffffffffffffffff168273ffffffffffffffffffffffffffffffffffffffff1603610706576040517f08c379a00000000000000000000000000000000000000000000000000000000081526004016106fd90610fd2565b60405180910390fd5b5f73ffffffffffffffffffffffffffffffffffffffff1660335f9054906101000a900473ffffffffffffffffffffffffffffffffffffffff1673ffffffffffffffffffffffffffffffffffffffff1603610795576040517f08c379a000000000000000000000000000000000000000000000000000000000815260040161078c9061103a565b60405180910390fd5b5f8273ffffffffffffffffffffffffffffffffffffffff166370a08231306040518263ffffffff1660e01b81526004016107cf9190610c08565b602060405180830381865afa1580156107ea573d5f803e3d5ffd5b505050506040513d601f19601f8201168201806040525081019061080e919061106c565b90505f82148061081d57508082115b15610826578091505b8273ffffffffffffffffffffffffffffffffffffffff1663a9059cbb60335f9054906101000a900473ffffffffffffffffffffffffffffffffffffffff16846040518363ffffffff1660e01b81526004016108829291906110a6565b6020604051808303815f875af115801561089e573d5f803e3d5ffd5b505050506040513d601f19601f820116820180604052508101906108c29190611102565b507ff931edb47c50b4b4104c187b5814a9aef5f709e17e2ecf9617e860cacade929c8360335f9054906101000a900473ffffffffffffffffffffffffffffffffffffffff16846040516109179392919061112d565b60405180910390a1505050565b5f80303b90505f811491505090565b5f604051905090565b5f80fd5b5f80fd5b5f73ffffffffffffffffffffffffffffffffffffffff82169050919050565b5f61096d82610944565b9050919050565b61097d81610963565b8114610987575f80fd5b50565b5f8135905061099881610974565b92915050565b5f602082840312156109b3576109b261093c565b5b5f6109c08482850161098a565b91505092915050565b5f80fd5b5f80fd5b5f601f19601f8301169050919050565b7f4e487b71000000000000000000000000000000000000000000000000000000005f52604160045260245ffd5b610a17826109d1565b810181811067ffffffffffffffff82111715610a3657610a356109e1565b5b80604052505050565b5f610a48610933565b9050610a548282610a0e565b919050565b5f67ffffffffffffffff821115610a7357610a726109e1565b5b610a7c826109d1565b9050602081019050919050565b828183375f83830152505050565b5f610aa9610aa484610a59565b610a3f565b905082815260208101848484011115610ac557610ac46109cd565b5b610ad0848285610a89565b509392505050565b5f82601f830112610aec57610aeb6109c9565b5b8135610afc848260208601610a97565b91505092915050565b5f8060408385031215610b1b57610b1a61093c565b5b5f610b288582860161098a565b925050602083013567ffffffffffffffff811115610b4957610b48610940565b5b610b5585828601610ad8565b9150509250929050565b5f81519050919050565b5f82825260208201905092915050565b5f5b83811015610b96578082015181840152602081019050610b7b565b5f8484015250505050565b5f610bab82610b5f565b610bb58185610b69565b9350610bc5818560208601610b79565b610bce816109d1565b840191505092915050565b5f6020820190508181035f830152610bf18184610ba1565b905092915050565b610c0281610963565b82525050565b5f602082019050610c1b5f830184610bf9565b92915050565b5f819050919050565b610c3381610c21565b8114610c3d575f80fd5b50565b5f81359050610c4e81610c2a565b92915050565b5f8060408385031215610c6a57610c6961093c565b5b5f610c778582860161098a565b9250506020610c8885828601610c40565b9150509250929050565b5f82825260208201905092915050565b7f43414c4c45525f4e4f545f436f726500000000000000000000000000000000005f82015250565b5f610cd6600f83610c92565b9150610ce182610ca2565b602082019050919050565b5f6020820190508181035f830152610d0381610cca565b9050919050565b7f6e6577206f776e657220616464726573732063616e6e6f74206265207a65726f5f82015250565b5f610d3e602083610c92565b9150610d4982610d0a565b602082019050919050565b5f6020820190508181035f830152610d6b81610d32565b9050919050565b5f81905092915050565b5f610d8682610b5f565b610d908185610d72565b9350610da0818560208601610b79565b80840191505092915050565b5f610db78284610d7c565b915081905092915050565b7f43616c6c20746f2064417070206661696c6564000000000000000000000000005f82015250565b5f610df6601383610c92565b9150610e0182610dc2565b602082019050919050565b5f6020820190508181035f830152610e2381610dea565b9050919050565b7f436f6e747261637420696e7374616e63652068617320616c72656164792062655f8201527f656e20696e697469616c697a6564000000000000000000000000000000000000602082015250565b5f610e84602e83610c92565b9150610e8f82610e2a565b604082019050919050565b5f6020820190508181035f830152610eb181610e78565b9050919050565b7f636f7265416464726573732063616e6e6f74206265207a65726f0000000000005f82015250565b5f610eec601a83610c92565b9150610ef782610eb8565b602082019050919050565b5f6020820190508181035f830152610f1981610ee0565b9050919050565b7f43414c4c45525f4e4f545f4f574e4552000000000000000000000000000000005f82015250565b5f610f54601083610c92565b9150610f5f82610f20565b602082019050919050565b5f6020820190508181035f830152610f8181610f48565b9050919050565b7f746f6b656e20616464726573732063616e6e6f74206265207a65726f000000005f82015250565b5f610fbc601c83610c92565b9150610fc782610f88565b602082019050919050565b5f6020820190508181035f830152610fe981610fb0565b9050919050565b7f6f776e657220616464726573732063616e6e6f74206265207a65726f000000005f82015250565b5f611024601c83610c92565b915061102f82610ff0565b602082019050919050565b5f6020820190508181035f83015261105181611018565b9050919050565b5f8151905061106681610c2a565b92915050565b5f602082840312156110815761108061093c565b5b5f61108e84828501611058565b91505092915050565b6110a081610c21565b82525050565b5f6040820190506110b95f830185610bf9565b6110c66020830184611097565b9392505050565b5f8115159050919050565b6110e1816110cd565b81146110eb575f80fd5b50565b5f815190506110fc816110d8565b92915050565b5f602082840312156111175761111661093c565b5b5f611124848285016110ee565b91505092915050565b5f6060820190506111405f830186610bf9565b61114d6020830185610bf9565b61115a6040830184611097565b94935050505056fea26469706673582212205a997180e6c6c583e109c475d548314b1a01693fe7cc84496badbd89e4fa6c6064736f6c63430008140033","linkReferences":{}},"methodIdentifiers":{"callDapp(address,bytes)":"4331fa6e","claimTokens(address,uint256)":"fe417fa5","core()":"f2f4eb26","initialize(address)":"c4d66de8","owner()":"8da5cb5b","setOwner(address)":"13af4035"},"id":17}