{"abi":[{"type":"receive","stateMutability":"payable"},{"type":"function","name":"claimTokens","inputs":[{"name":"token","type":"address","internalType":"address"},{"name":"amount","type":"uint256","internalType":"uint256"}],"outputs":[],"stateMutability":"nonpayable"},{"type":"function","name":"core","inputs":[],"outputs":[{"name":"","type":"address","internalType":"address"}],"stateMutability":"view"},{"type":"function","name":"delegatecall","inputs":[{"name":"target","type":"address","internalType":"address"},{"name":"data","type":"bytes","internalType":"bytes"}],"outputs":[{"name":"","type":"bytes","internalType":"bytes"}],"stateMutability":"nonpayable"},{"type":"function","name":"initialize","inputs":[{"name":"coreAddress","type":"address","internalType":"address"}],"outputs":[],"stateMutability":"nonpayable"},{"type":"function","name":"owner","inputs":[],"outputs":[{"name":"","type":"address","internalType":"address"}],"stateMutability":"view"},{"type":"function","name":"setOwner","inputs":[{"name":"newOwner","type":"address","internalType":"address"}],"outputs":[],"stateMutability":"nonpayable"},{"type":"event","name":"ClaimedTokens","inputs":[{"name":"token","type":"address","indexed":false,"internalType":"address"},{"name":"owner","type":"address","indexed":false,"internalType":"address"},{"name":"amount","type":"uint256","indexed":false,"internalType":"uint256"}],"anonymous":false},{"type":"event","name":"OnwerSet","inputs":[{"name":"onwer","type":"address","indexed":false,"internalType":"address"}],"anonymous":false}],"bytecode":{"object":"0x608060405234801561000f575f80fd5b5061117a8061001d5f395ff3fe608060405260043610610058575f3560e01c806313af4035146100635780636e0aacf71461008b5780638da5cb5b146100c7578063c4d66de8146100f1578063f2f4eb2614610119578063fe417fa5146101435761005f565b3661005f57005b5f80fd5b34801561006e575f80fd5b50610089600480360381019061008491906109d0565b61016b565b005b348015610096575f80fd5b506100b160048036038101906100ac9190610b37565b6102e2565b6040516100be9190610c0b565b60405180910390f35b3480156100d2575f80fd5b506100db6103a4565b6040516100e89190610c3a565b60405180910390f35b3480156100fc575f80fd5b50610117600480360381019061011291906109d0565b6103cc565b005b348015610124575f80fd5b5061012d61055d565b60405161013a9190610c3a565b60405180910390f35b34801561014e575f80fd5b5061016960048036038101906101649190610c86565b610585565b005b3373ffffffffffffffffffffffffffffffffffffffff1660345f9054906101000a900473ffffffffffffffffffffffffffffffffffffffff1673ffffffffffffffffffffffffffffffffffffffff16146101fa576040517f08c379a00000000000000000000000000000000000000000000000000000000081526004016101f190610d1e565b60405180910390fd5b5f73ffffffffffffffffffffffffffffffffffffffff168173ffffffffffffffffffffffffffffffffffffffff1603610268576040517f08c379a000000000000000000000000000000000000000000000000000000000815260040161025f90610d86565b60405180910390fd5b8060335f6101000a81548173ffffffffffffffffffffffffffffffffffffffff021916908373ffffffffffffffffffffffffffffffffffffffff1602179055507ff2bf82ec9fbd15628bde8fe50feaeeb0d2eab3d12d043094c4b61a1ffba4b964816040516102d79190610c3a565b60405180910390a150565b60603373ffffffffffffffffffffffffffffffffffffffff1660345f9054906101000a900473ffffffffffffffffffffffffffffffffffffffff1673ffffffffffffffffffffffffffffffffffffffff1614610373576040517f08c379a000000000000000000000000000000000000000000000000000000000815260040161036a90610d1e565b60405180910390fd5b61039c828473ffffffffffffffffffffffffffffffffffffffff166108a090919063ffffffff16565b905092915050565b5f60335f9054906101000a900473ffffffffffffffffffffffffffffffffffffffff16905090565b5f60019054906101000a900460ff16806103ea57506103e9610956565b5b806103ff57505f8054906101000a900460ff16155b61043e576040517f08c379a000000000000000000000000000000000000000000000000000000000815260040161043590610e14565b60405180910390fd5b5f8060019054906101000a900460ff16159050801561048b5760015f60016101000a81548160ff02191690831515021790555060015f806101000a81548160ff0219169083151502179055505b5f73ffffffffffffffffffffffffffffffffffffffff168273ffffffffffffffffffffffffffffffffffffffff16036104f9576040517f08c379a00000000000000000000000000000000000000000000000000000000081526004016104f090610e7c565b60405180910390fd5b8160345f6101000a81548173ffffffffffffffffffffffffffffffffffffffff021916908373ffffffffffffffffffffffffffffffffffffffff1602179055508015610559575f8060016101000a81548160ff0219169083151502179055505b5050565b5f60345f9054906101000a900473ffffffffffffffffffffffffffffffffffffffff16905090565b3373ffffffffffffffffffffffffffffffffffffffff1660335f9054906101000a900473ffffffffffffffffffffffffffffffffffffffff1673ffffffffffffffffffffffffffffffffffffffff1614610614576040517f08c379a000000000000000000000000000000000000000000000000000000000815260040161060b90610ee4565b60405180910390fd5b5f73ffffffffffffffffffffffffffffffffffffffff168273ffffffffffffffffffffffffffffffffffffffff1603610682576040517f08c379a000000000000000000000000000000000000000000000000000000000815260040161067990610f4c565b60405180910390fd5b5f73ffffffffffffffffffffffffffffffffffffffff1660335f9054906101000a900473ffffffffffffffffffffffffffffffffffffffff1673ffffffffffffffffffffffffffffffffffffffff1603610711576040517f08c379a000000000000000000000000000000000000000000000000000000000815260040161070890610fb4565b60405180910390fd5b5f8273ffffffffffffffffffffffffffffffffffffffff166370a08231306040518263ffffffff1660e01b815260040161074b9190610c3a565b602060405180830381865afa158015610766573d5f803e3d5ffd5b505050506040513d601f19601f8201168201806040525081019061078a9190610fe6565b90505f82148061079957508082115b156107a2578091505b8273ffffffffffffffffffffffffffffffffffffffff1663a9059cbb60335f9054906101000a900473ffffffffffffffffffffffffffffffffffffffff16846040518363ffffffff1660e01b81526004016107fe929190611020565b6020604051808303815f875af115801561081a573d5f803e3d5ffd5b505050506040513d601f19601f8201168201806040525081019061083e919061107c565b507ff931edb47c50b4b4104c187b5814a9aef5f709e17e2ecf9617e860cacade929c8360335f9054906101000a900473ffffffffffffffffffffffffffffffffffffffff1684604051610893939291906110a7565b60405180910390a1505050565b60605f73ffffffffffffffffffffffffffffffffffffffff168373ffffffffffffffffffffffffffffffffffffffff1603610910576040517f08c379a000000000000000000000000000000000000000000000000000000000815260040161090790611126565b60405180910390fd5b5f80835160208501865af43d6040519250601f19601f6020830101168301604052808352805f602085013e81156001810361094d57815f803e815ffd5b50505092915050565b5f80303b90505f811491505090565b5f604051905090565b5f80fd5b5f80fd5b5f73ffffffffffffffffffffffffffffffffffffffff82169050919050565b5f61099f82610976565b9050919050565b6109af81610995565b81146109b9575f80fd5b50565b5f813590506109ca816109a6565b92915050565b5f602082840312156109e5576109e461096e565b5b5f6109f2848285016109bc565b91505092915050565b5f80fd5b5f80fd5b5f601f19601f8301169050919050565b7f4e487b71000000000000000000000000000000000000000000000000000000005f52604160045260245ffd5b610a4982610a03565b810181811067ffffffffffffffff82111715610a6857610a67610a13565b5b80604052505050565b5f610a7a610965565b9050610a868282610a40565b919050565b5f67ffffffffffffffff821115610aa557610aa4610a13565b5b610aae82610a03565b9050602081019050919050565b828183375f83830152505050565b5f610adb610ad684610a8b565b610a71565b905082815260208101848484011115610af757610af66109ff565b5b610b02848285610abb565b509392505050565b5f82601f830112610b1e57610b1d6109fb565b5b8135610b2e848260208601610ac9565b91505092915050565b5f8060408385031215610b4d57610b4c61096e565b5b5f610b5a858286016109bc565b925050602083013567ffffffffffffffff811115610b7b57610b7a610972565b5b610b8785828601610b0a565b9150509250929050565b5f81519050919050565b5f82825260208201905092915050565b5f5b83811015610bc8578082015181840152602081019050610bad565b5f8484015250505050565b5f610bdd82610b91565b610be78185610b9b565b9350610bf7818560208601610bab565b610c0081610a03565b840191505092915050565b5f6020820190508181035f830152610c238184610bd3565b905092915050565b610c3481610995565b82525050565b5f602082019050610c4d5f830184610c2b565b92915050565b5f819050919050565b610c6581610c53565b8114610c6f575f80fd5b50565b5f81359050610c8081610c5c565b92915050565b5f8060408385031215610c9c57610c9b61096e565b5b5f610ca9858286016109bc565b9250506020610cba85828601610c72565b9150509250929050565b5f82825260208201905092915050565b7f43414c4c45525f4e4f545f436f726500000000000000000000000000000000005f82015250565b5f610d08600f83610cc4565b9150610d1382610cd4565b602082019050919050565b5f6020820190508181035f830152610d3581610cfc565b9050919050565b7f6e6577206f776e657220616464726573732063616e6e6f74206265207a65726f5f82015250565b5f610d70602083610cc4565b9150610d7b82610d3c565b602082019050919050565b5f6020820190508181035f830152610d9d81610d64565b9050919050565b7f436f6e747261637420696e7374616e63652068617320616c72656164792062655f8201527f656e20696e697469616c697a6564000000000000000000000000000000000000602082015250565b5f610dfe602e83610cc4565b9150610e0982610da4565b604082019050919050565b5f6020820190508181035f830152610e2b81610df2565b9050919050565b7f636f7265416464726573732063616e6e6f74206265207a65726f0000000000005f82015250565b5f610e66601a83610cc4565b9150610e7182610e32565b602082019050919050565b5f6020820190508181035f830152610e9381610e5a565b9050919050565b7f43414c4c45525f4e4f545f4f574e4552000000000000000000000000000000005f82015250565b5f610ece601083610cc4565b9150610ed982610e9a565b602082019050919050565b5f6020820190508181035f830152610efb81610ec2565b9050919050565b7f746f6b656e20616464726573732063616e6e6f74206265207a65726f000000005f82015250565b5f610f36601c83610cc4565b9150610f4182610f02565b602082019050919050565b5f6020820190508181035f830152610f6381610f2a565b9050919050565b7f6f776e657220616464726573732063616e6e6f74206265207a65726f000000005f82015250565b5f610f9e601c83610cc4565b9150610fa982610f6a565b602082019050919050565b5f6020820190508181035f830152610fcb81610f92565b9050919050565b5f81519050610fe081610c5c565b92915050565b5f60208284031215610ffb57610ffa61096e565b5b5f61100884828501610fd2565b91505092915050565b61101a81610c53565b82525050565b5f6040820190506110335f830185610c2b565b6110406020830184611011565b9392505050565b5f8115159050919050565b61105b81611047565b8114611065575f80fd5b50565b5f8151905061107681611052565b92915050565b5f602082840312156110915761109061096e565b5b5f61109e84828501611068565b91505092915050565b5f6060820190506110ba5f830186610c2b565b6110c76020830185610c2b565b6110d46040830184611011565b949350505050565b7f74617267657420616464726573732063616e6e6f74206265207a65726f0000005f82015250565b5f611110601d83610cc4565b915061111b826110dc565b602082019050919050565b5f6020820190508181035f83015261113d81611104565b905091905056fea26469706673582212207cf84c175e73cf0534d4c40647ee4c26a75d5e0b3cfe35d07fa77a047187bfdf64736f6c63430008140033","linkReferences":{}},"methodIdentifiers":{"claimTokens(address,uint256)":"fe417fa5","core()":"f2f4eb26","delegatecall(address,bytes)":"6e0aacf7","initialize(address)":"c4d66de8","owner()":"8da5cb5b","setOwner(address)":"13af4035"},"id":17}