{"abi":[{"type":"constructor","inputs":[{"name":"_accountImpl","type":"address","internalType":"address"}],"stateMutability":"nonpayable"},{"type":"function","name":"ACCOUNT_IMPL","inputs":[],"outputs":[{"name":"","type":"address","internalType":"address"}],"stateMutability":"view"},{"type":"function","name":"accounts","inputs":[{"name":"","type":"address","internalType":"address"}],"outputs":[{"name":"","type":"address","internalType":"address"}],"stateMutability":"view"},{"type":"function","name":"createAccount","inputs":[{"name":"_address","type":"address","internalType":"address"}],"outputs":[],"stateMutability":"nonpayable"},{"type":"function","name":"excute","inputs":[{"name":"_account","type":"address","internalType":"address"},{"name":"_target","type":"address","internalType":"address"},{"name":"_data","type":"bytes","internalType":"bytes"}],"outputs":[{"name":"","type":"bytes","internalType":"bytes"}],"stateMutability":"nonpayable"},{"type":"function","name":"owner","inputs":[],"outputs":[{"name":"","type":"address","internalType":"address"}],"stateMutability":"view"},{"type":"function","name":"renounceOwnership","inputs":[],"outputs":[],"stateMutability":"nonpayable"},{"type":"function","name":"transferOwnership","inputs":[{"name":"newOwner","type":"address","internalType":"address"}],"outputs":[],"stateMutability":"nonpayable"},{"type":"event","name":"Initialized","inputs":[{"name":"version","type":"uint64","indexed":false,"internalType":"uint64"}],"anonymous":false},{"type":"event","name":"OwnershipTransferred","inputs":[{"name":"previousOwner","type":"address","indexed":true,"internalType":"address"},{"name":"newOwner","type":"address","indexed":true,"internalType":"address"}],"anonymous":false},{"type":"error","name":"InvalidInitialization","inputs":[]},{"type":"error","name":"NotInitializing","inputs":[]}],"bytecode":{"object":"0x608060405234801562000010575f80fd5b506040516200123638038062001236833981810160405281019062000036919062000281565b620000566200004a6200012b60201b60201c565b6200013260201b60201c565b5f801b62000069620001f360201b60201c565b0362000073575f80fd5b5f73ffffffffffffffffffffffffffffffffffffffff168173ffffffffffffffffffffffffffffffffffffffff1603620000e4576040517f08c379a0000000000000000000000000000000000000000000000000000000008152600401620000db9062000335565b60405180910390fd5b8060025f6101000a81548173ffffffffffffffffffffffffffffffffffffffff021916908373ffffffffffffffffffffffffffffffffffffffff1602179055505062000355565b5f33905090565b5f805f9054906101000a900473ffffffffffffffffffffffffffffffffffffffff169050815f806101000a81548173ffffffffffffffffffffffffffffffffffffffff021916908373ffffffffffffffffffffffffffffffffffffffff1602179055508173ffffffffffffffffffffffffffffffffffffffff168173ffffffffffffffffffffffffffffffffffffffff167f8be0079c531659141344cd1fd0a4f28419497f9722a3daafe3b4186f6b6457e060405160405180910390a35050565b5f7fffffffffffffffffffffffffffffffffffffffffffffffffffffffffbf6011325f1b905090565b5f80fd5b5f73ffffffffffffffffffffffffffffffffffffffff82169050919050565b5f6200024b8262000220565b9050919050565b6200025d816200023f565b811462000268575f80fd5b50565b5f815190506200027b8162000252565b92915050565b5f602082840312156200029957620002986200021c565b5b5f620002a8848285016200026b565b91505092915050565b5f82825260208201905092915050565b7f4163636f756e7420696d706c656d656e746174696f6e206164647265737320635f8201527f616e6e6f74206265207a65726f00000000000000000000000000000000000000602082015250565b5f6200031d602d83620002b1565b91506200032a82620002c1565b604082019050919050565b5f6020820190508181035f8301526200034e816200030f565b9050919050565b610ed380620003635f395ff3fe608060405234801561000f575f80fd5b506004361061007b575f3560e01c80638da5cb5b116100595780638da5cb5b146100d75780639859387b146100f5578063cec0d21214610111578063f2fde38b146101415761007b565b8063121ee5411461007f5780635e5c06e21461009d578063715018a6146100cd575b5f80fd5b61008761015d565b60405161009491906107f4565b60405180910390f35b6100b760048036038101906100b29190610848565b610182565b6040516100c491906107f4565b60405180910390f35b6100d56101b2565b005b6100df6101c5565b6040516100ec91906107f4565b60405180910390f35b61010f600480360381019061010a9190610848565b6101ec565b005b61012b600480360381019061012691906109af565b61032d565b6040516101389190610a95565b60405180910390f35b61015b60048036038101906101569190610848565b610586565b005b60025f9054906101000a900473ffffffffffffffffffffffffffffffffffffffff1681565b6001602052805f5260405f205f915054906101000a900473ffffffffffffffffffffffffffffffffffffffff1681565b6101ba610608565b6101c35f610686565b565b5f805f9054906101000a900473ffffffffffffffffffffffffffffffffffffffff16905090565b6101f4610608565b5f61024660025f9054906101000a900473ffffffffffffffffffffffffffffffffffffffff168360405160200161022b9190610afa565b60405160208183030381529060405280519060200120610747565b90508073ffffffffffffffffffffffffffffffffffffffff1663c4d66de8306040518263ffffffff1660e01b815260040161028191906107f4565b5f604051808303815f87803b158015610298575f80fd5b505af11580156102aa573d5f803e3d5ffd5b505050508060015f8473ffffffffffffffffffffffffffffffffffffffff1673ffffffffffffffffffffffffffffffffffffffff1681526020019081526020015f205f6101000a81548173ffffffffffffffffffffffffffffffffffffffff021916908373ffffffffffffffffffffffffffffffffffffffff1602179055505050565b6060610337610608565b5f73ffffffffffffffffffffffffffffffffffffffff168473ffffffffffffffffffffffffffffffffffffffff16036103a5576040517f08c379a000000000000000000000000000000000000000000000000000000000815260040161039c90610b6e565b60405180910390fd5b5f73ffffffffffffffffffffffffffffffffffffffff168373ffffffffffffffffffffffffffffffffffffffff1603610413576040517f08c379a000000000000000000000000000000000000000000000000000000000815260040161040a90610bd6565b60405180910390fd5b5f825111610456576040517f08c379a000000000000000000000000000000000000000000000000000000000815260040161044d90610c3e565b60405180910390fd5b5f60015f8673ffffffffffffffffffffffffffffffffffffffff1673ffffffffffffffffffffffffffffffffffffffff1681526020019081526020015f205f9054906101000a900473ffffffffffffffffffffffffffffffffffffffff1690505f8173ffffffffffffffffffffffffffffffffffffffff16636e0aacf786866040518363ffffffff1660e01b81526004016104f2929190610c5c565b5f604051808303815f875af115801561050d573d5f803e3d5ffd5b505050506040513d5f823e3d601f19601f820116820180604052508101906105359190610cf8565b90505f81511161057a576040517f08c379a000000000000000000000000000000000000000000000000000000000815260040161057190610d89565b60405180910390fd5b80925050509392505050565b61058e610608565b5f73ffffffffffffffffffffffffffffffffffffffff168173ffffffffffffffffffffffffffffffffffffffff16036105fc576040517f08c379a00000000000000000000000000000000000000000000000000000000081526004016105f390610e17565b60405180910390fd5b61060581610686565b50565b61061061075b565b73ffffffffffffffffffffffffffffffffffffffff1661062e6101c5565b73ffffffffffffffffffffffffffffffffffffffff1614610684576040517f08c379a000000000000000000000000000000000000000000000000000000000815260040161067b90610e7f565b60405180910390fd5b565b5f805f9054906101000a900473ffffffffffffffffffffffffffffffffffffffff169050815f806101000a81548173ffffffffffffffffffffffffffffffffffffffff021916908373ffffffffffffffffffffffffffffffffffffffff1602179055508173ffffffffffffffffffffffffffffffffffffffff168173ffffffffffffffffffffffffffffffffffffffff167f8be0079c531659141344cd1fd0a4f28419497f9722a3daafe3b4186f6b6457e060405160405180910390a35050565b5f6107535f8484610762565b905092915050565b5f33905090565b5f6c5af43d3d93803e602a57fd5bf36021528260145273602c3d8160093d39f33d3d3d3d363d3d37363d735f52816035600c86f59050806107aa5763301164255f526004601cfd5b5f6021529392505050565b5f73ffffffffffffffffffffffffffffffffffffffff82169050919050565b5f6107de826107b5565b9050919050565b6107ee816107d4565b82525050565b5f6020820190506108075f8301846107e5565b92915050565b5f604051905090565b5f80fd5b5f80fd5b610827816107d4565b8114610831575f80fd5b50565b5f813590506108428161081e565b92915050565b5f6020828403121561085d5761085c610816565b5b5f61086a84828501610834565b91505092915050565b5f80fd5b5f80fd5b5f601f19601f8301169050919050565b7f4e487b71000000000000000000000000000000000000000000000000000000005f52604160045260245ffd5b6108c18261087b565b810181811067ffffffffffffffff821117156108e0576108df61088b565b5b80604052505050565b5f6108f261080d565b90506108fe82826108b8565b919050565b5f67ffffffffffffffff82111561091d5761091c61088b565b5b6109268261087b565b9050602081019050919050565b828183375f83830152505050565b5f61095361094e84610903565b6108e9565b90508281526020810184848401111561096f5761096e610877565b5b61097a848285610933565b509392505050565b5f82601f83011261099657610995610873565b5b81356109a6848260208601610941565b91505092915050565b5f805f606084860312156109c6576109c5610816565b5b5f6109d386828701610834565b93505060206109e486828701610834565b925050604084013567ffffffffffffffff811115610a0557610a0461081a565b5b610a1186828701610982565b9150509250925092565b5f81519050919050565b5f82825260208201905092915050565b5f5b83811015610a52578082015181840152602081019050610a37565b5f8484015250505050565b5f610a6782610a1b565b610a718185610a25565b9350610a81818560208601610a35565b610a8a8161087b565b840191505092915050565b5f6020820190508181035f830152610aad8184610a5d565b905092915050565b5f8160601b9050919050565b5f610acb82610ab5565b9050919050565b5f610adc82610ac1565b9050919050565b610af4610aef826107d4565b610ad2565b82525050565b5f610b058284610ae3565b60148201915081905092915050565b5f82825260208201905092915050565b7f4163636f756e7420616464726573732063616e6e6f74206265207a65726f00005f82015250565b5f610b58601e83610b14565b9150610b6382610b24565b602082019050919050565b5f6020820190508181035f830152610b8581610b4c565b9050919050565b7f54617267657420616464726573732063616e6e6f74206265207a65726f0000005f82015250565b5f610bc0601d83610b14565b9150610bcb82610b8c565b602082019050919050565b5f6020820190508181035f830152610bed81610bb4565b9050919050565b7f446174612063616e6e6f7420626520656d7074790000000000000000000000005f82015250565b5f610c28601483610b14565b9150610c3382610bf4565b602082019050919050565b5f6020820190508181035f830152610c5581610c1c565b9050919050565b5f604082019050610c6f5f8301856107e5565b8181036020830152610c818184610a5d565b90509392505050565b5f610c9c610c9784610903565b6108e9565b905082815260208101848484011115610cb857610cb7610877565b5b610cc3848285610a35565b509392505050565b5f82601f830112610cdf57610cde610873565b5b8151610cef848260208601610c8a565b91505092915050565b5f60208284031215610d0d57610d0c610816565b5b5f82015167ffffffffffffffff811115610d2a57610d2961081a565b5b610d3684828501610ccb565b91505092915050565b7f44656c656761746563616c6c206661696c6564000000000000000000000000005f82015250565b5f610d73601383610b14565b9150610d7e82610d3f565b602082019050919050565b5f6020820190508181035f830152610da081610d67565b9050919050565b7f4f776e61626c653a206e6577206f776e657220697320746865207a65726f20615f8201527f6464726573730000000000000000000000000000000000000000000000000000602082015250565b5f610e01602683610b14565b9150610e0c82610da7565b604082019050919050565b5f6020820190508181035f830152610e2e81610df5565b9050919050565b7f4f776e61626c653a2063616c6c6572206973206e6f7420746865206f776e65725f82015250565b5f610e69602083610b14565b9150610e7482610e35565b602082019050919050565b5f6020820190508181035f830152610e9681610e5d565b905091905056fea2646970667358221220768b862605c3b8622c70e294d735ae766b16052c854fd6e9073c98b560c7257164736f6c63430008140033","linkReferences":{}},"methodIdentifiers":{"ACCOUNT_IMPL()":"121ee541","accounts(address)":"5e5c06e2","createAccount(address)":"9859387b","excute(address,address,bytes)":"cec0d212","owner()":"8da5cb5b","renounceOwnership()":"715018a6","transferOwnership(address)":"f2fde38b"},"id":18}