{"abi":[{"type":"constructor","inputs":[{"name":"_accountImpl","type":"address","internalType":"address"}],"stateMutability":"nonpayable"},{"type":"function","name":"ACCOUNT_IMPL","inputs":[],"outputs":[{"name":"","type":"address","internalType":"address"}],"stateMutability":"view"},{"type":"function","name":"accounts","inputs":[{"name":"","type":"address","internalType":"address"}],"outputs":[{"name":"","type":"address","internalType":"address"}],"stateMutability":"view"},{"type":"function","name":"createAccount","inputs":[{"name":"_address","type":"address","internalType":"address"}],"outputs":[],"stateMutability":"nonpayable"},{"type":"function","name":"excute","inputs":[{"name":"_user","type":"address","internalType":"address"},{"name":"_target","type":"address","internalType":"address"},{"name":"_data","type":"bytes","internalType":"bytes"}],"outputs":[{"name":"","type":"bytes","internalType":"bytes"}],"stateMutability":"nonpayable"},{"type":"function","name":"owner","inputs":[],"outputs":[{"name":"","type":"address","internalType":"address"}],"stateMutability":"view"},{"type":"function","name":"renounceOwnership","inputs":[],"outputs":[],"stateMutability":"nonpayable"},{"type":"function","name":"transferOwnership","inputs":[{"name":"newOwner","type":"address","internalType":"address"}],"outputs":[],"stateMutability":"nonpayable"},{"type":"event","name":"Initialized","inputs":[{"name":"version","type":"uint64","indexed":false,"internalType":"uint64"}],"anonymous":false},{"type":"event","name":"OwnershipTransferred","inputs":[{"name":"previousOwner","type":"address","indexed":true,"internalType":"address"},{"name":"newOwner","type":"address","indexed":true,"internalType":"address"}],"anonymous":false},{"type":"error","name":"InvalidInitialization","inputs":[]},{"type":"error","name":"NotInitializing","inputs":[]}],"bytecode":{"object":"0x608060405234801562000010575f80fd5b50604051620010db380380620010db833981810160405281019062000036919062000281565b620000566200004a6200012b60201b60201c565b6200013260201b60201c565b5f801b62000069620001f360201b60201c565b0362000073575f80fd5b5f73ffffffffffffffffffffffffffffffffffffffff168173ffffffffffffffffffffffffffffffffffffffff1603620000e4576040517f08c379a0000000000000000000000000000000000000000000000000000000008152600401620000db9062000335565b60405180910390fd5b8060025f6101000a81548173ffffffffffffffffffffffffffffffffffffffff021916908373ffffffffffffffffffffffffffffffffffffffff1602179055505062000355565b5f33905090565b5f805f9054906101000a900473ffffffffffffffffffffffffffffffffffffffff169050815f806101000a81548173ffffffffffffffffffffffffffffffffffffffff021916908373ffffffffffffffffffffffffffffffffffffffff1602179055508173ffffffffffffffffffffffffffffffffffffffff168173ffffffffffffffffffffffffffffffffffffffff167f8be0079c531659141344cd1fd0a4f28419497f9722a3daafe3b4186f6b6457e060405160405180910390a35050565b5f7fffffffffffffffffffffffffffffffffffffffffffffffffffffffffbf6011325f1b905090565b5f80fd5b5f73ffffffffffffffffffffffffffffffffffffffff82169050919050565b5f6200024b8262000220565b9050919050565b6200025d816200023f565b811462000268575f80fd5b50565b5f815190506200027b8162000252565b92915050565b5f602082840312156200029957620002986200021c565b5b5f620002a8848285016200026b565b91505092915050565b5f82825260208201905092915050565b7f4163636f756e7420696d706c656d656e746174696f6e206164647265737320635f8201527f616e6e6f74206265207a65726f00000000000000000000000000000000000000602082015250565b5f6200031d602d83620002b1565b91506200032a82620002c1565b604082019050919050565b5f6020820190508181035f8301526200034e816200030f565b9050919050565b610d7880620003635f395ff3fe608060405234801561000f575f80fd5b506004361061007b575f3560e01c80638da5cb5b116100595780638da5cb5b146100d75780639859387b146100f5578063cec0d21214610111578063f2fde38b146101415761007b565b8063121ee5411461007f5780635e5c06e21461009d578063715018a6146100cd575b5f80fd5b61008761015d565b6040516100949190610769565b60405180910390f35b6100b760048036038101906100b291906107bd565b610182565b6040516100c49190610769565b60405180910390f35b6100d56101b2565b005b6100df6101c5565b6040516100ec9190610769565b60405180910390f35b61010f600480360381019061010a91906107bd565b6101ec565b005b61012b60048036038101906101269190610924565b61032d565b6040516101389190610a0a565b60405180910390f35b61015b600480360381019061015691906107bd565b6104fb565b005b60025f9054906101000a900473ffffffffffffffffffffffffffffffffffffffff1681565b6001602052805f5260405f205f915054906101000a900473ffffffffffffffffffffffffffffffffffffffff1681565b6101ba61057d565b6101c35f6105fb565b565b5f805f9054906101000a900473ffffffffffffffffffffffffffffffffffffffff16905090565b6101f461057d565b5f61024660025f9054906101000a900473ffffffffffffffffffffffffffffffffffffffff168360405160200161022b9190610a6f565b604051602081830303815290604052805190602001206106bc565b90508073ffffffffffffffffffffffffffffffffffffffff1663c4d66de8306040518263ffffffff1660e01b81526004016102819190610769565b5f604051808303815f87803b158015610298575f80fd5b505af11580156102aa573d5f803e3d5ffd5b505050508060015f8473ffffffffffffffffffffffffffffffffffffffff1673ffffffffffffffffffffffffffffffffffffffff1681526020019081526020015f205f6101000a81548173ffffffffffffffffffffffffffffffffffffffff021916908373ffffffffffffffffffffffffffffffffffffffff1602179055505050565b606061033761057d565b5f73ffffffffffffffffffffffffffffffffffffffff168473ffffffffffffffffffffffffffffffffffffffff16036103a5576040517f08c379a000000000000000000000000000000000000000000000000000000000815260040161039c90610ae3565b60405180910390fd5b5f73ffffffffffffffffffffffffffffffffffffffff168373ffffffffffffffffffffffffffffffffffffffff1603610413576040517f08c379a000000000000000000000000000000000000000000000000000000000815260040161040a90610b4b565b60405180910390fd5b5f60015f8673ffffffffffffffffffffffffffffffffffffffff1673ffffffffffffffffffffffffffffffffffffffff1681526020019081526020015f205f9054906101000a900473ffffffffffffffffffffffffffffffffffffffff1690508073ffffffffffffffffffffffffffffffffffffffff16634331fa6e85856040518363ffffffff1660e01b81526004016104ae929190610b69565b5f604051808303815f875af11580156104c9573d5f803e3d5ffd5b505050506040513d5f823e3d601f19601f820116820180604052508101906104f19190610c05565b9150509392505050565b61050361057d565b5f73ffffffffffffffffffffffffffffffffffffffff168173ffffffffffffffffffffffffffffffffffffffff1603610571576040517f08c379a000000000000000000000000000000000000000000000000000000000815260040161056890610cbc565b60405180910390fd5b61057a816105fb565b50565b6105856106d0565b73ffffffffffffffffffffffffffffffffffffffff166105a36101c5565b73ffffffffffffffffffffffffffffffffffffffff16146105f9576040517f08c379a00000000000000000000000000000000000000000000000000000000081526004016105f090610d24565b60405180910390fd5b565b5f805f9054906101000a900473ffffffffffffffffffffffffffffffffffffffff169050815f806101000a81548173ffffffffffffffffffffffffffffffffffffffff021916908373ffffffffffffffffffffffffffffffffffffffff1602179055508173ffffffffffffffffffffffffffffffffffffffff168173ffffffffffffffffffffffffffffffffffffffff167f8be0079c531659141344cd1fd0a4f28419497f9722a3daafe3b4186f6b6457e060405160405180910390a35050565b5f6106c85f84846106d7565b905092915050565b5f33905090565b5f6c5af43d3d93803e602a57fd5bf36021528260145273602c3d8160093d39f33d3d3d3d363d3d37363d735f52816035600c86f590508061071f5763301164255f526004601cfd5b5f6021529392505050565b5f73ffffffffffffffffffffffffffffffffffffffff82169050919050565b5f6107538261072a565b9050919050565b61076381610749565b82525050565b5f60208201905061077c5f83018461075a565b92915050565b5f604051905090565b5f80fd5b5f80fd5b61079c81610749565b81146107a6575f80fd5b50565b5f813590506107b781610793565b92915050565b5f602082840312156107d2576107d161078b565b5b5f6107df848285016107a9565b91505092915050565b5f80fd5b5f80fd5b5f601f19601f8301169050919050565b7f4e487b71000000000000000000000000000000000000000000000000000000005f52604160045260245ffd5b610836826107f0565b810181811067ffffffffffffffff8211171561085557610854610800565b5b80604052505050565b5f610867610782565b9050610873828261082d565b919050565b5f67ffffffffffffffff82111561089257610891610800565b5b61089b826107f0565b9050602081019050919050565b828183375f83830152505050565b5f6108c86108c384610878565b61085e565b9050828152602081018484840111156108e4576108e36107ec565b5b6108ef8482856108a8565b509392505050565b5f82601f83011261090b5761090a6107e8565b5b813561091b8482602086016108b6565b91505092915050565b5f805f6060848603121561093b5761093a61078b565b5b5f610948868287016107a9565b9350506020610959868287016107a9565b925050604084013567ffffffffffffffff81111561097a5761097961078f565b5b610986868287016108f7565b9150509250925092565b5f81519050919050565b5f82825260208201905092915050565b5f5b838110156109c75780820151818401526020810190506109ac565b5f8484015250505050565b5f6109dc82610990565b6109e6818561099a565b93506109f68185602086016109aa565b6109ff816107f0565b840191505092915050565b5f6020820190508181035f830152610a2281846109d2565b905092915050565b5f8160601b9050919050565b5f610a4082610a2a565b9050919050565b5f610a5182610a36565b9050919050565b610a69610a6482610749565b610a47565b82525050565b5f610a7a8284610a58565b60148201915081905092915050565b5f82825260208201905092915050565b7f4163636f756e7420616464726573732063616e6e6f74206265207a65726f00005f82015250565b5f610acd601e83610a89565b9150610ad882610a99565b602082019050919050565b5f6020820190508181035f830152610afa81610ac1565b9050919050565b7f54617267657420616464726573732063616e6e6f74206265207a65726f0000005f82015250565b5f610b35601d83610a89565b9150610b4082610b01565b602082019050919050565b5f6020820190508181035f830152610b6281610b29565b9050919050565b5f604082019050610b7c5f83018561075a565b8181036020830152610b8e81846109d2565b90509392505050565b5f610ba9610ba484610878565b61085e565b905082815260208101848484011115610bc557610bc46107ec565b5b610bd08482856109aa565b509392505050565b5f82601f830112610bec57610beb6107e8565b5b8151610bfc848260208601610b97565b91505092915050565b5f60208284031215610c1a57610c1961078b565b5b5f82015167ffffffffffffffff811115610c3757610c3661078f565b5b610c4384828501610bd8565b91505092915050565b7f4f776e61626c653a206e6577206f776e657220697320746865207a65726f20615f8201527f6464726573730000000000000000000000000000000000000000000000000000602082015250565b5f610ca6602683610a89565b9150610cb182610c4c565b604082019050919050565b5f6020820190508181035f830152610cd381610c9a565b9050919050565b7f4f776e61626c653a2063616c6c6572206973206e6f7420746865206f776e65725f82015250565b5f610d0e602083610a89565b9150610d1982610cda565b602082019050919050565b5f6020820190508181035f830152610d3b81610d02565b905091905056fea2646970667358221220c1c0537b7a508e655b81b7c3dfd719712e0dc8779935cbafbcb2f0ee9f7cbdf864736f6c63430008140033","linkReferences":{}},"methodIdentifiers":{"ACCOUNT_IMPL()":"121ee541","accounts(address)":"5e5c06e2","createAccount(address)":"9859387b","excute(address,address,bytes)":"cec0d212","owner()":"8da5cb5b","renounceOwnership()":"715018a6","transferOwnership(address)":"f2fde38b"},"id":18}