{"abi":[{"type":"function","name":"callerLog","inputs":[{"name":"","type":"uint64","internalType":"uint64"}],"outputs":[{"name":"","type":"address","internalType":"address"}],"stateMutability":"view"},{"type":"function","name":"num","inputs":[],"outputs":[{"name":"","type":"uint64","internalType":"uint64"}],"stateMutability":"view"},{"type":"function","name":"testCall","inputs":[],"outputs":[],"stateMutability":"nonpayable"}],"bytecode":{"object":"0x608060405234801561000f575f80fd5b506103268061001d5f395ff3fe608060405234801561000f575f80fd5b506004361061003f575f3560e01c80631fac5844146100435780634e70b1dc14610073578063b7f0583614610091575b5f80fd5b61005d600480360381019061005891906101e9565b61009b565b60405161006a9190610253565b60405180910390f35b61007b6100ca565b604051610088919061027b565b60405180910390f35b6100996100e3565b005b5f602052805f5260405f205f915054906101000a900473ffffffffffffffffffffffffffffffffffffffff1681565b60015f9054906101000a900467ffffffffffffffff1681565b335f8060015f9054906101000a900467ffffffffffffffff1667ffffffffffffffff1667ffffffffffffffff1681526020019081526020015f205f6101000a81548173ffffffffffffffffffffffffffffffffffffffff021916908373ffffffffffffffffffffffffffffffffffffffff16021790555060015f81819054906101000a900467ffffffffffffffff168092919061017f906102c1565b91906101000a81548167ffffffffffffffff021916908367ffffffffffffffff16021790555050565b5f80fd5b5f67ffffffffffffffff82169050919050565b6101c8816101ac565b81146101d2575f80fd5b50565b5f813590506101e3816101bf565b92915050565b5f602082840312156101fe576101fd6101a8565b5b5f61020b848285016101d5565b91505092915050565b5f73ffffffffffffffffffffffffffffffffffffffff82169050919050565b5f61023d82610214565b9050919050565b61024d81610233565b82525050565b5f6020820190506102665f830184610244565b92915050565b610275816101ac565b82525050565b5f60208201905061028e5f83018461026c565b92915050565b7f4e487b71000000000000000000000000000000000000000000000000000000005f52601160045260245ffd5b5f6102cb826101ac565b915067ffffffffffffffff82036102e5576102e4610294565b5b60018201905091905056fea2646970667358221220907853d50417ca6529ebac7dc0d1b15ee2a0ae7655d50a7ca420a2bab4d920c264736f6c63430008140033","linkReferences":{}},"methodIdentifiers":{"callerLog(uint64)":"1fac5844","num()":"4e70b1dc","testCall()":"b7f05836"},"id":0}