{"abi":[{"type":"function","name":"testCall","inputs":[],"outputs":[],"stateMutability":"nonpayable"}],"bytecode":{"object":"0x608060405234801561000f575f80fd5b506101a18061001d5f395ff3fe608060405234801561000f575f80fd5b5060043610610029575f3560e01c8063b7f058361461002d575b5f80fd5b610035610037565b005b335f8060015f9054906101000a900467ffffffffffffffff1667ffffffffffffffff1667ffffffffffffffff1681526020019081526020015f205f6101000a81548173ffffffffffffffffffffffffffffffffffffffff021916908373ffffffffffffffffffffffffffffffffffffffff16021790555060015f81819054906101000a900467ffffffffffffffff16809291906100d39061013c565b91906101000a81548167ffffffffffffffff021916908367ffffffffffffffff16021790555050565b7f4e487b71000000000000000000000000000000000000000000000000000000005f52601160045260245ffd5b5f67ffffffffffffffff82169050919050565b5f61014682610129565b915067ffffffffffffffff82036101605761015f6100fc565b5b60018201905091905056fea264697066735822122067e7ffe36412db8a3a2a5cbe950e5ce6fa17a3ecd6e6c17428214c1c188c176164736f6c63430008140033","linkReferences":{}},"methodIdentifiers":{"testCall()":"b7f05836"},"id":0}